:020000040000FA
:040000002CEF00F0F1
:100008003B82E1CF2EF0E2CF2FF0D9CF30F0DACF1C
:1000180031F09EAA13D0020E2A6E000E2B6EAECFC0
:100028002CF00FEC03F00D0EAE18D8B404D00A0E65
:10003800AE18D8A402D0010E016E9E9A31C0DAFF24
:1000480030C0D9FF2FC0E2FF2EC0E1FF3B92110064
:0400580004EF04F0BD
:10060000002323232050494331386620554152545A
:0D0610002044656D6F202323230D0A000098
:10061E002AC025F02BC026F0A8EC03F00009D8B4B0
:10062E0011D020EE20F02A50D9262B50DA2210EECF
:10063E0020F02A50E1262B50E222E7502D6E2D2875
:10064E001F0BDF6E20EE21F02A50D9262B50DA2216
:10065E00DF502D6E2D502A24D96E000E2B20DA6E0F
:10066E002CC0DFFF20EE21F02A50D9262B50DA22A3
:10067E0010EE21F02A50E1262B50E222E7502D6E8B
:10068E002D281F0BDF6E120036C032F037C033F04C
:10069E00DFEC03F00009D8B402D0000E120020EEF9
:1006AE0020F03650D9263750DA22DF503A6E3A50C3
:1006BE003624D96E000E3720DA6E38C0E1FF39C00D
:1006CE00E2FFDFCFE7FF20EE20F03650D92637507D
:1006DE00DA2210EE20F03650E1263750E222E750B3
:1006EE003A6E3A281F0BDF6E010E1200720ED36E99
:1006FE00000E7E6E000E7F6E020E326E000E336E98
:10070E00F3EC03F013EC04F0010E336E060E346EB0
:10071E00CAEC03F00150D8B4FDD7000E016E03D021
:10072E00245022EC04F0020E366E000E376E240EAC
:10073E00386E000E396E4BEC03F00009D8B4EAD7D0
:10074E00EFD720EE21F02550D9262650DA22DF50A1
:10075E00276E286A20EE20F02550D9262650DA2260
:10076E00DF50296E2950275E000E285A1F0E2716BD
:10077E00000E28161F0E27182810D8A402D0010E1E
:10078E001200000E12000AD033C0F6FF34C0F7FF7D
:10079E000800F55022EC04F0334A342A33C0F6FF39
:1007AE0034C0F7FF0800F5500009D8B41200ECD79A
:1007BE0020EE20F03250D9263350DA2210EE21F0FE
:1007CE003250E1263350E222DE50E618D8A402D091
:1007DE00010E1200000E120020EE20F03250D9262B
:1007EE003350DA22000EDF6E20EE21F03250D92681
:1007FE003350DA22000EDF6E120000EE01F0240EEE
:10080E00EE6AE806FDE13B903B92000EF86E060E96
:10081E00F76E00017DEF03F0948C948E9E9A9D8A64
:10082E00F28CF28EAC98B896AC84080EAF6EAB8E8E
:10083E00AC8AAB881200326EACA2FED732C0ADFFCE
:02084E00120096
:020000040020DA
:08000000FFFFFFFFFFFFFFFF00
:020000040030CA
:0E000000FF08191EFF8B81FF0FC00FE00F409D
:00000001FF
