:020000040000FA
:04000000C4EF04F055
:10060000004E4F20415434354442585820444554FC
:1006100045435445442E0D0A005049433138462085
:1006200054455354494E472E2E2E0D0A00464C4138
:1006300053482054455354494E472E2E2E0D0A0040
:1006400048454C4C4F20574F524C442121210D0A14
:0F0650000057524954453A00524541443A000080
:10066000720ED36E000E7E6E000E7F6E12EC05F0E1
:100670001EEC05F02D0E026E060E036E9BEC04F0D0
:10068000FAEC04F00009D8B495D0510E026E060EB3
:10069000036E9BEC04F0400E026E060E036E9BECA4
:1006A00004F0000E056E000E066E000E076E000EC2
:1006B000086E400E096E060E0A6E400E016E060EA2
:1006C000026EE3EC04F001C00BF002C00CF0010E6E
:1006D0000D6EE1EC03F0000E056E000E066E000ECE
:1006E000076E000E086E000E096E010E0A6E400EB7
:1006F000016E060E026EE3EC04F001C00BF002C0C6
:100700000CF04AEC04F0580E026E060E036E9BECE1
:1007100004F0000E026E010E036E9BEC04F0510E0D
:10072000026E060E036E9BEC04F0190E026E060EAE
:10073000036E9BEC04F0FF0E056EFF0E066E030EBB
:10074000076E000E086E190E096E060E0A6E190E5F
:10075000016E060E026EE3EC04F001C00BF002C065
:100760000CF0010E0D6EE1EC03F0FF0E056EFF0EB6
:10077000066E030E076E000E086E000E096E010E67
:100780000A6E190E016E060E026EE3EC04F001C053
:100790000BF002C00CF04AEC04F0580E026E060E8C
:1007A000036E9BEC04F0000E026E010E036E9BECD8
:1007B00004F006D0010E026E060E036E9BEC04F0F0
:1007C000FFD738EC05F0840E31EC05F0000E31EC6B
:1007D00005F0000E31EC05F0000E31EC05F017D0FD
:1007E00009C0F6FF0AC0F7FFF86A050EF76403D0E8
:1007F0000800F55005D0F6CFE9FFF7CFEAFFEF503C
:1008000031EC05F0094A0A2A0B06D8A00C060B5059
:100810000C10D8A4E5D744EC05F038EC05F00D50E9
:10082000D8B404D0830E31EC05F003D0880E31EC3F
:1008300005F005C00EF006C00FF007C010F008C0AC
:1008400011F0100E05D0D890113210320F320E3246
:10085000E82EF9D70E5031EC05F005C00EF006C0B9
:100860000FF007C010F008C011F0080E05D0D890A6
:10087000113210320F320E32E82EF9D70E50FE0B25
:1008800031EC05F0000E31EC05F044EC05F029ECFC
:1008900005F0120038EC05F0D20E31EC05F005C081
:1008A0000DF006C00EF007C00FF008C010F0100EDB
:1008B00005D0D89010320F320E320D32E82EF9D713
:1008C0000D5031EC05F005C00DF006C00EF007C06C
:1008D0000FF008C010F0080E05D0D89010320F327B
:1008E0000E320D32E82EF9D70D50FE0B31EC05F02B
:1008F000000E31EC05F0000E31EC05F0000E31EC8D
:1009000005F0000E31EC05F0000E31EC05F00CD0D6
:100910003EEC05F009C0D9FF0AC0DAFFDF6E094AD4
:100920000A2A0B06D8A00C060B500C10D8A4F0D73E
:1009300044EC05F0120014D002C0F6FF03C0F7FF2C
:10094000F86A050EF76403D00800F55005D0F6CF1D
:10095000E9FFF7CFEAFFEF504AEC05F0024A032A1D
:1009600002C0F6FF03C0F7FFF86A050EF76403D074
:100970000800F55005D0F6CFE9FFF7CFEAFFEF50BA
:100980000009D8B41200D8D7A00EF66E0A0EF76E82
:10099000000EF86E00EE12F010EE04F00900F5CF34
:1009A000EEFFE550E150FAE101EE00F011EE00F04B
:1009B000EE6AE550E150FCE1E250FAE1000EF86E1B
:1009C000000130EF03F001C003F002C004F002D0D8
:1009D000014A022A01C0F6FF02C0F7FF0800F550E5
:1009E0000009D8A4F5D70350015C016E04500258E9
:1009F000026E120006EC05F0046E04503C0B1C0A5B
:100A0000D8A402D0010E1200000E120038EC05F03E
:100A1000D70E31EC05F03EEC05F0036E44EC05F02A
:100A200003501200929A898A94969488949AC79E49
:100A3000C78CC698F00EC616C68A1200948C948E87
:100A4000AC98B896AC84080EAF6EAB8EAC8AAB880F
:100A5000120001D0040006EC05F0046E04BE120082
:100A6000F9D7026E02C0C9FFC7A0FED7C950120055
:100A7000899A00F000F000F000F01200000EC96E3C
:100A8000C7A0FED7C9501200898A00F000F000F01C
:100A900000F01200016EACA2FED701C0ADFF120043
:040AA00019064006ED
:020000040020DA
:08000000FFFFFFFFFFFFFFFF00
:020000040030CA
:0E000000FF08191EFF8B81FF0FC00FE00F409D
:00000001FF
