:020000040000FA
:0400000022EF06F0F5
:100600000048454C4C4F20574F524C442148454CD4
:0D0610004C4F20574F524C44210D0A000062
:10061E009292929495909298898894EC06F03DEC83
:10062E0006F0000E236E000E226E000E256E010ED9
:10063E00246E50EC06F0340E386EF20EE82EFED715
:10064E00382EFCD7010E236E000E226E000E256E84
:10065E00000E246E50EC06F0010E236E010E226E7B
:10066E00000E256E000E246E50EC06F0010E236E69
:10067E00020E226E310E256E100E246E50EC06F018
:10068E00010E236E030E226EE20E256E000E246EF8
:10069E0050EC06F0010E236E100E226E000E256E2B
:1006AE009D0E246E50EC06F0010E236E110E226E7E
:1006BE00000E256E220E246E50EC06F0010E236EF7
:1006CE00000E226E010E256E200E246E50EC06F0EA
:1006DE00680E386EE40EE82EFED7382EFCD700F0EA
:1006EE0000F0010E236E000E226E310E256E200ECE
:1006FE00246E50EC06F0020E396EA00E386E920E7D
:10070E00E82EFED7382EFCD7392EFAD700F000F09F
:10071E00000E236E010E226E010E256E000E246E4B
:10072E0050EC06F0000E236E020E226E000E256EA9
:10073E00000E246E50EC06F0000E236E030E226E99
:10074E00120E256E300E246E50EC06F0000E236E47
:10075E00060E226E000E256E000E246E50EC06F074
:10076E00000E236E070E226E010E256E010E246EF4
:10077E0050EC06F0000E236E080E226E080E256E4B
:10078E00080E246E50EC06F0000E236E090E226E3B
:10079E00000E256E000E246E50EC06F0000E236E39
:1007AE000B0E226E000E256E000E246E50EC06F01F
:1007BE00000E236E0C0E226E000E256E000E246EA1
:1007CE0050EC06F0000E236E0D0E226E000E256EFE
:1007DE00180E246E50EC06F0000E236E120E226ED2
:1007EE00000E256E000E246E50EC06F0000E236EE9
:1007FE00130E226E000E256E000E246E50EC06F0C7
:10080E00000E236E180E226E000E256E000E246E44
:10081E0050EC06F0000E236E190E226E000E256EA1
:10082E00000E246E50EC06F0020E236E030E226EA6
:10083E00000E256E000E246E50EC06F0020E236E96
:10084E00040E226E000E256E000E246E50EC06F085
:10085E00020E236E100E226E000E256E000E246EFA
:10086E0050EC06F0020E236E110E226E000E256E57
:10087E00EF0E246E50EC06F0020E236E120E226E58
:10088E00000E256E000E246E50EC06F0020E236E46
:10089E00130E226E010E256E3F0E246E50EC06F0E6
:1008AE00020E236E140E226E000E256E000E246EA6
:1008BE0050EC06F0020E236E150E226E000E256E03
:1008CE00000E246E50EC06F0020E236E160E226EF3
:1008DE00000E256E000E246E50EC06F0020E236EF6
:1008EE00170E226E000E256E000E246E50EC06F0D2
:1008FE00030E236E000E226E530E256E430E246ED3
:10090E0050EC06F0030E236E010E226E100E256EB5
:10091E00210E246E50EC06F0030E236E020E226E94
:10092E00000E256E030E246E50EC06F0030E236EA1
:10093E00030E226E000E256E110E246E50EC06F084
:10094E00030E236E040E226E050E256E0A0E246E05
:10095E0050EC06F0030E236E050E226E430E256E2E
:10096E00420E246E50EC06F0030E236E060E226E1F
:10097E00110E256E000E246E50EC06F0030E236E43
:10098E00070E226E000E256E030E246E50EC06F03E
:10099E00030E236E080E226E120E256E010E246EAD
:1009AE0050EC06F0030E236E090E226E050E256E18
:1009BE000A0E246E50EC06F0040E236E000E226E0C
:1009CE00400E256E270E246E50EC06F0040E236E9C
:1009DE00010E226E000E256E000E246E50EC06F0F7
:1009EE00040E236E020E226E000E256E000E246E75
:1009FE0050EC06F0040E236E030E226E010E256ED1
:100A0E003F0E246E50EC06F0040E236E040E226E82
:100A1E00000E256E000E246E50EC06F0020E236EB4
:100A2E00000E226E000E256E000E246E50EC06F0A7
:100A3E00020E236E010E226E000E256E000E246E27
:100A4E0050EC06F0010E236E000E226E710E256E16
:100A5E00200E246E50EC06F0000E236E070E226E52
:100A6E00010E256E030E246E50EC06F0340E386E19
:100A7E00F20EE82EFED7382EFCD7000E236E070E90
:100A8E00226E010E256E130E246E50EC06F0FF0E34
:100A9E00376EE00E366EA5EC05F0340E386EF20EA3
:100AAE00E82EFED7382EFCD7070E376EE00E366EC8
:100ABE00A5EC05F01200020E236E100E226E26C05B
:100ACE0024F027C025F050EC06F0020E236E110E16
:100ADE00226E2AC024F02BC025F050EC06F0020E38
:100AEE00236E120E226E28C024F029C025F050EC81
:100AFE0006F0020E236E130E226E2CC024F02DC0B3
:100B0E0025F050EC06F0020E236E000E226E26C06B
:100B1E0024F027C025F050EC06F0020E236E010ED5
:100B2E00226E28C024F029C025F050EC06F0020EEB
:100B3E00236E020E226E6EEC06F01200000E276E71
:100B4E00000E266E000E296E000E286E3CC02AF096
:100B5E003DC02BF03AC02CF03BC02DF062EC05F0FE
:100B6E0036C02CF037C02DF03CC020F03DC021F037
:100B7E00226A236A3AC024F03BC025F0266A276A0F
:100B8E00D4EC05F020C02EF021C02FF022C030F0A2
:100B9E0023C031F0FFEC05F01200000E286E000E9F
:100BAE00296E000E2A6E000E2B6E20A008D0245047
:100BBE0028262550292226502A2227502B22D8902B
:100BCE002436253626362736D89023322232213245
:100BDE0020322050211022102310D8A4E6D728C08E
:100BEE0020F029C021F02AC022F02BC023F01200E1
:100BFE0089848992000E326E000E336E000E346EB2
:100C0E00000E356E0CD02CC022F02DC023F083ECDC
:100C1E0006F0010E3226000E3322342235222E50DB
:100C2E00325C2F5033583050345831503558D8A08C
:100C3E00EAD789821200220EF66E0D0EF76E000EA6
:100C4E00F86E00EE3AF010EE06F00900F5CFEEFF6A
:100C5E00E550E150FAE100EE01F01F0EEE6AE806F3
:100C6E00FDE1000EF86E000163EF06F08C90340E7D
:100C7E00206EF20EE82EFED7202EFCD78C80340E7E
:100C8E00206EF20EE82EFED7202EFCD789848982A4
:100C9E0012008994899223508AEC06F022508AEC35
:100CAE0006F089828984899225508AEC06F02450B8
:100CBE008AEC06F089821200720ED36E000E7E6EE2
:100CCE00000E7F6E79EC06F00FEC03F0FFD78994DF
:100CDE00899223508AEC06F022508AEC06F0898223
:100CEE008984120094969488949AC79EC78CC6984D
:100CFE00F00EC616C68A120023508AEC06F0225059
:100D0E008AEC06F01200216E21C0C9FFC7A0FED7E3
:0E0D1E00C95012004001F00001068C80120046
:020000040020DA
:08000000FFFFFFFFFFFFFFFF00
:020000040030CA
:0E000000FF08191EFF8B81FF0FC00FE00F409D
:00000001FF
