:020000040000FA
:040000000DEF06F00A
:100600000048454C4C4F20574F524C442148454CD4
:0D0610004C4F20574F524C44210D0A000062
:10061E00929292949590B3EC06F03FEC06F0000E99
:10062E00256E000E246E000E276E010E266E7CECDB
:10063E0006F0340E2B6EF20EE82EFED72B2EFCD7C4
:10064E00010E256E000E246E000E276E000E266E15
:10065E007CEC06F0010E256E010E246E000E276E48
:10066E00000E266E7CEC06F0010E256E020E246E38
:10067E00310E276E100E266E7CEC06F0010E256EE6
:10068E00030E246EE20E276E000E266E7CEC06F034
:10069E00010E256E100E246E000E276E9D0E266E18
:1006AE007CEC06F0010E256E110E246E000E276EE8
:1006BE00220E266E7CEC06F0010E256E000E246EC8
:1006CE00010E276E200E266E7CEC06F0680E2B6E49
:1006DE00E40EE82EFED72B2EFCD700F000F0010E14
:1006EE00256E000E246E310E276E200E266E7CECCB
:1006FE0006F0020E2C6EA00E2B6E920EE82EFED77A
:10070E002B2EFCD72C2EFAD700F000F0000E256E03
:10071E00010E246E010E276E000E266E7CEC06F086
:10072E00000E256E020E246E000E276E000E266E33
:10073E007CEC06F0000E256E030E246E120E276E54
:10074E00300E266E7CEC06F0000E256E060E246E24
:10075E00000E276E000E266E7CEC06F0000E256E47
:10076E00070E246E010E276E010E266E7CEC06F02F
:10077E00000E256E080E246E080E276E080E266ECD
:10078E007CEC06F0000E256E090E246E000E276E10
:10079E00000E266E7CEC06F0000E256E0B0E246EFF
:1007AE00000E276E000E266E7CEC06F0000E256EF7
:1007BE000C0E246E000E276E000E266E7CEC06F0DC
:1007CE00000E256E0D0E246E000E276E180E266E70
:1007DE007CEC06F0000E256E120E246E000E276EB7
:1007EE00000E266E7CEC06F0000E256E130E246EA7
:1007FE00000E276E000E266E7CEC06F0000E256EA7
:10080E00180E246E000E276E000E266E7CEC06F07F
:10081E00000E256E190E246E000E276E000E266E2B
:10082E007CEC06F0020E256E030E246E000E276E73
:10083E00000E266E7CEC06F0020E256E040E246E63
:10084E00000E276E000E266E7CEC06F0020E256E54
:10085E00100E246E000E276E000E266E7CEC06F037
:10086E00020E256E110E246E000E276EEF0E266EF2
:10087E007CEC06F0020E256E120E246E000E276E14
:10088E00000E266E7CEC06F0020E256E130E246E04
:10089E00010E276E3F0E266E7CEC06F0020E256EC4
:1008AE00140E246E000E276E000E266E7CEC06F0E3
:1008BE00020E256E150E246E000E276E000E266E8D
:1008CE007CEC06F0020E256E160E246E000E276EC0
:1008DE00000E266E7CEC06F0020E256E170E246EB0
:1008EE00000E276E000E266E7CEC06F0030E256EB3
:1008FE00000E246E530E276E430E266E7CEC06F011
:10090E00030E256E010E246E100E276E210E266E1E
:10091E007CEC06F0030E256E020E246E000E276E82
:10092E00030E266E7CEC06F0030E256E030E246E6F
:10093E00000E276E110E266E7CEC06F0030E256E51
:10094E00040E246E050E276E0A0E266E7CEC06F043
:10095E00030E256E050E246E430E276E420E266E76
:10096E007CEC06F0030E256E060E246E110E276E1D
:10097E00000E266E7CEC06F0030E256E070E246E1E
:10098E00000E276E030E266E7CEC06F0030E256E0F
:10099E00080E246E120E276E010E266E7CEC06F0EB
:1009AE00030E256E090E246E050E276E0A0E266E98
:1009BE007CEC06F0040E256E000E246E400E276EA3
:1009CE00270E266E7CEC06F0040E256E010E246EAC
:1009DE00000E276E000E266E7CEC06F0040E256EC1
:1009EE00020E246E000E276E000E266E7CEC06F0B4
:1009FE00040E256E030E246E010E276E3F0E266E1C
:100A0E007CEC06F0040E256E040E246E000E276E8E
:100A1E00000E266E7CEC06F0020E256E000E246E85
:100A2E00000E276E000E266E7CEC06F0020E256E72
:100A3E00010E246E000E276E000E266E7CEC06F064
:100A4E00010E256E000E246E710E276E200E266E80
:100A5E007CEC06F0000E256E070E246E010E276E3E
:100A6E00030E266E7CEC06F0340E2B6EF20EE82E84
:100A7E00FED72B2EFCD7000E256E070E246E010E10
:100A8E00276E130E266E7CEC06F0000E50EC05F071
:100A9E0012002A6E3CD0000E256E030E246E100E30
:100AAE00276EA00E266E7CEC06F0000E336EF00E56
:100ABE00326E010E356E400E346E1200000E256E33
:100ACE00030E246E100E276E980E266E7CEC06F02A
:100ADE00010E336E400E326E000E356EF00E346E19
:100AEE001200000E256E030E246E100E276E800E61
:100AFE00266E7CEC06F0D9D7000E256E030E246E02
:100B0E00100E276EA80E266E7CEC06F0E1D72A504A
:100B1E00286E296A2950000AD8A412002850000A0B
:100B2E00D8B4B9D7010AD8B4C9D7030AD8B4D9D71B
:100B3E00010AD8A41200E0D7020E256E100E246E04
:100B4E0028C026F029C027F07CEC06F0020E256E98
:100B5E00110E246E2CC026F02DC027F07CEC06F072
:100B6E00020E256E120E246E2AC026F02BC027F020
:100B7E007CEC06F0020E256E130E246E2EC026F0AF
:100B8E002FC027F07CEC06F0020E256E000E246EB0
:100B9E0028C026F029C027F07CEC06F0020E256E48
:100BAE00010E246E2AC026F02BC027F07CEC06F036
:100BBE00020E236E020E226E95EC06F01200000E4F
:100BCE00296E000E286E000E2B6E000E2A6E32C09D
:100BDE002CF033C02DF034C02EF035C02FF0A3EC26
:100BEE0005F030C026F031C027F032C020F033C0FF
:100BFE0021F034C022F035C023F069EC06F020C09D
:100C0E0028F021C029F028EC06F01200600EF66ED6
:100C1E000D0EF76E000EF86E00EE32F010EE06F0CE
:100C2E000900F5CFEEFFE550E150FAE100EE01F0DC
:100C3E001F0EEE6AE806FDE1000EF86E000155EF9C
:100C4E0006F089848992000E2B6E000E2A6E08D053
:100C5E0026C022F027C023F09FEC06F02A4A2B2A4A
:100C6E0028502A5C29502B58D8A0F2D7898212001E
:100C7E008C90060E206E300EE82EFED7202EFCD75E
:100C8E0000F000F08C80060E206E300EE82EFED79F
:100C9E00202EFCD700F000F089821200720ED36E67
:100CAE00000E7E6E000E7F6E89EC06F00FEC03F0E8
:100CBE00030E50EC05F0070E316EE00E306EE6ECD2
:100CCE0005F0FFD720502202F3CF24F0F4CF25F009
:100CDE0020502302F350252621502202F3502526C0
:100CEE0024C020F025C021F0120024C022F025C01F
:100CFE0023F095EC06F026C022F027C023F09FECDF
:100D0E0006F0120094969488949AC79EC78CC69843
:100D1E00C650F00B0109C66EC68A120089948992DC
:100D2E002350A9EC06F02250A9EC06F0898212009D
:100D3E00898489922350A9EC06F02250A9EC06F082
:100D4E0089821200216E21C0C9FFC7A0FED7C950EB
:0C0D5E0012004001F00001068C80120021
:020000040020DA
:08000000FFFFFFFFFFFFFFFF00
:020000040030CA
:0E000000FF08191EFF8B81FF0FC00FE00F409D
:00000001FF
