:020000040000FA
:0400000028EF00F0F5
:100008005982FACF01F0FBCF02F0D9CF03F0DACF53
:1000180004F0F2BC9DAA0ED09EAA0CD001D80AD03A
:100028000500FA6E5050FD6E5150FE6EF850FF6E8E
:10003800FA50120004C0DAFF03C0D9FF02C0FBFF68
:0C00480001C0FAFF599211004FEF05F0C3
:10060000002323232025732043524C462052656348
:1006100065697665642E2E2E0D0A005049433138E7
:0306200046000091
:1006240020EE52F010EE15F0060EDBCFE3FFE806E5
:10063400FCE212C020F013C021F020502110D8A4F5
:1006440004D0150E206E000E216E20C005F021C0CE
:1006540006F072EC05F005C024F006C025F041C098
:1006640022F042C023F023BE0ED02450225C23503B
:10067400800A146E2550800A1458D8B004D022C0C1
:1006840024F023C025F024C022F025C023F03FC06D
:100694001EF040C01FF043A00DD016D0000E086E0F
:1006A400200E076E10C009F011C00AF09BEC04F094
:1006B400244A252A1E50245C2550800A146E1F509B
:1006C400800A1458D8A0EAD7000E1D6E000E1C6EC6
:1006D4001ED020C0F6FF21C0F7FFF86A050EF764AC
:1006E40003D00800F55005D0F6CFE1FFF7CFE2FFC5
:1006F400E750146E1450076E086A10C009F011C058
:100704000AF09BEC04F0204A212A1C4A1D2A22509C
:100714001C5C1D50800A146E2350800A1458D8A003
:10072400D8D743B00DD016D0000E086E200E076E39
:1007340010C009F011C00AF09BEC04F0244A252AE9
:100744001E50245C2550800A146E1F50800A1458D1
:10075400D8A0EAD724C010F025C011F0120028C098
:10076400D9FF29C0DAFFDECFF6FFDDCFF7FF08009F
:10077400F550250AD8A477D028C0D9FF29C0DAFFBC
:10078400DE2A000EDD22000E406E000E3F6E3FC0DA
:1007940043F040C044F04168426828C0D9FF29C0F2
:1007A400DAFFDECFF6FFDDCFF7FF0800F550730A5E
:1007B400D8A42AD028C0D9FF29C0DAFFDE2A000E27
:1007C400DD222AC0D9FF2BC0DAFFDFCF2CF0020EC6
:1007D400DE26DFCF2DF0000EDD222CC0D9FF2DC088
:1007E400DAFFDECF2EF0DDCF2FF026C010F027C0C9
:1007F40011F02EC012F02FC013F012EC03F010C051
:1008040026F011C027F0120028C0D9FF29C0DAFF52
:10081400DECFF6FFDDCFF7FF0800F550250AD8A498
:1008240016D028C0D9FF29C0DAFFDE2A000EDD2247
:10083400000E086E250E076E26C009F027C00AF0C8
:100844009BEC04F0000E276E010E266E120028C0E9
:10085400D9FF29C0DAFFDE2A000EDD22000E276E42
:10086400000E266E120028C0D9FF29C0DAFFDECFA1
:10087400F6FFDDCFF7FF0800F550076E086A26C0C3
:1008840009F027C00AF09BEC04F028C0D9FF29C066
:10089400DAFFDE2A000EDD22D5D7800E4824D96E79
:1008A400DA6A000EDA22000EDF6EABA414D0800EDA
:1008B4004824D96EDA6A000EDA220001DF8201D8F8
:1008C4000AD00500FA6E4E50FD6E4F50FE6EF85081
:1008D400FF6EFA501200ABA214D0800E4824D96ED9
:1008E400DA6A000EDA220001DF8401D80AD005009A
:1008F400FA6E4C50FD6E4D50FE6EF850FF6EFA507D
:100904001200800E4824D96EDA6A000EDA22DF5013
:10091400D8B40CD001D812000500FA6E4A50FD6E0E
:100924004B50FE6EF850FF6EFA501200CBEC05F0FF
:10093400120009500A10D8B404D009500A10D8A4DF
:1009440004D0075008EC06F0120020EE04F0095021
:10095400D9260A50DA22DE50DE10D8B416D020EEA2
:1009640004F00950D9260A50DA2210EE02F0095098
:10097400E1260A50E222DE50E65CE650800A0F6E61
:10098400DE50800A0F58D8B0120020EE02F0095051
:10099400D9260A50DA22DE2A000EDD2212009D9AA0
:1009A4009E0E056E080E066E12EC06F0948C948E64
:1009B400AC98B896AC84080EAF6EAB8EAC8AAB889C
:1009C400640E056E0C0E066E1CEC06F0540E056EDD
:1009D4000C0E066E17EC06F05A0E056E0C0E066E23
:1009E40021EC06F0000E456E000E486E000E476EB8
:1009F400000E466E9D8A120032C036F033C037F0C6
:100A0400000E3E6E000E3D6E12D030C026F031C096
:100A140027F0360E286E000E296E34C02AF035C039
:100A24002BF0B1EC03F026503D2627503E2236C071
:100A3400F6FF37C0F7FF0800F5500009D8A4E5D742
:100A44003DC030F03EC031F01200F9EC05F0F28EFA
:100A5400F28C4950D8B4FDD7000E496E010E386EA1
:100A6400060E396E1B0E3A6E060E3B6EE5EC05F073
:100A74008AA002D0010E01D0000EFF0A3C6E8A50FB
:100A84003C18FE0B3C188A6E04D093EC05F002EC83
:100A940006F04650D8B4DDD7F8D74C0EF66E0C0EDF
:100AA400F76E000EF86E00EE52F010EE07F009003B
:100AB400F5CFEEFFE550E150FAE100EE60F0600E94
:100AC400EE6AE806FDE100EE3DF00D0EEE6AE80682
:100AD400FDE159905992000EF86E000127EF05F0E0
:100AE40005C007F006C008F002D0054A062A05C072
:100AF400F6FF06C0F7FFF86A050EF76403D0080096
:100B0400F55005D0F6CFE1FFF7CFE2FFE75000093B
:100B1400D8A4EBD70750055C056E08500658066E3E
:100B240012004650D8B4FDD7800E4724D96EDA6A35
:100B3400000EDA22DF50456EA00E4724D96EDA6A21
:100B4400000EDA22DF50056E472A1F0E476402D0DA
:100B5400000E476E9D9A46069D8A05501200000EAF
:100B64008D6E000E8C6E000E896E000E8A6E000E65
:100B74008B6E070E966E9268FE0E936EBF0E946E89
:100B84009568000E7E6E000E7F6E000E7C6EF18EF8
:100B940012000D0EAE18D8B404D00A0EAE18D8A4A4
:100BA40002D0010E496EA00E4824D96EDA6A000EF6
:100BB400DA22AECFDFFF482A1F0E486402D0000EAF
:100BC400486E462A12003A0E0001C26F000EC36F2F
:100BD400000E306E000E316E38C032F039C033F082
:100BE400C20E346E000E356EFEEC04F0120030ECD2
:100BF40006F0B1EC05F00DEC06F0D1EC04F01200B7
:100C0400056E9EA8FED705C0ADFF1200066E065005
:100C140002EC06F01200700ED36E000E9B6E1200F2
:100C240005C050F006C051F0120005C04CF006C0DB
:100C34004DF0120005C04EF006C04FF0120005C082
:0F0C44004AF006C04BF01200286E756C6C290048
:100C5400AB98AB881200CBEC05F01200D09E1200CA
:020C640012007C
:020000040020DA
:08000000FFFFFFFFFFFFFFFF00
:020000040030CA
:0E000000FF081F1EFF8B81FF0FC00FE00F4097
:00000001FF
