:020000040000FA
:0400000011EF00F00C
:100008005E829EAC08D0C4500001676F666BC35017
:0E00180066139E9CC2825E921100E0EF08F01B
:10060000004144432056414C3A20253034750000C7
:100610003EC0D9FF3FC0DAFFDECFF6FFDDCFF7FFE8
:100620000800F550250AD8A439D13EC0D9FF3FC0F3
:10063000DAFFDE2A000EDD22000E0001636F000EDD
:10064000626F62C05CF063C05DF064696569000E52
:100650004F6E000E14D05C803EC0D9FF3FC0DAFF61
:10066000DE2A000EDD222ED05C82F6D75C84F4D721
:100670005C86F2D75C88F0D7000E4F6E010E4E6E8E
:1006800021D03EC0D9FF3FC0DAFFDECFF6FFDDCF7D
:10069000F7FF0800F550426E436A4350000AD8A4A1
:1006A000EBD74250200AD8B4E3D7030AD8B4E2D734
:1006B000080AD8B4DBD7060AD8B4CDD71D0AD8B4F7
:1006C000D3D7DAD74E504F10D8B4DBD75CB05C929A
:1006D0003EC0D9FF3FC0DAFFDECFF6FFDDCFF7FF28
:1006E0000800F5502A0AD8A424D03EC0D9FF3FC044
:1006F000DAFFDE2A000EDD2240C0D9FF41C0DAFF5A
:10070000DFCF42F0020EDE26DFCF43F0000EDD2207
:1007100042C0D9FF43C0DAFFDECF62F0DDCF63F025
:10072000000163AF3FD05C80626D631FD8B0632B64
:1007300039D03EC0D9FF3FC0DAFFDECF08F0DDCFB1
:1007400009F03FEC05F008C062F009C063F007D083
:100750003EC0D9FF3FC0DAFFDE2A000EDD22D00EF8
:10076000426EFF0E436E3EC0D9FF3FC0DAFFDECFC0
:10077000F6FFDDCFF7FF0800F550446E456A4250A2
:10078000442643504522455006E10A0E445CD8B049
:1007900002D0010E01D0000E506E516A505051101F
:1007A000D8A4D6D73EC0D9FF3FC0DAFFDECFF6FFD0
:1007B000DDCFF7FF0800F550750AD8A440D03EC041
:1007C000D9FF3FC0DAFFDE2A000EDD2240C0D9FF8C
:1007D00041C0DAFFDFCF42F0020EDE26DFCF43F06A
:1007E000000EDD2242C0D9FF43C0DAFFDECF44F065
:1007F000DDCF45F044C046F045C047F0486A496A3D
:100800004A6A4B6A4C6A4D6A3CC01CF03DC01DF000
:1008100046C01EF047C01FF048C020F049C021F07C
:100820004AC022F04BC023F04CC024F04DC025F04C
:1008300068EC04F01CC03CF01DC03DF012003EC04E
:10084000D9FF3FC0DAFFDECFF6FFDDCFF7FF0800AC
:10085000F550250AD8A416D03EC0D9FF3FC0DAFF14
:10086000DE2A000EDD22000E026E250E016E3CC057
:1008700003F03DC004F09DEC06F0000E3D6E010E4D
:100880003C6E12003EC0D9FF3FC0DAFFDE2A000EE8
:10089000DD22000E3D6E000E3C6E12003EC0D9FF00
:1008A0003FC0DAFFDECFF6FFDDCFF7FF0800F550DF
:1008B000016E026A3CC003F03DC004F09DEC06F0FE
:1008C0003EC0D9FF3FC0DAFFDE2A000EDD22D5D7B9
:1008D000000165AF5C9265BF05D0655108E1640514
:1008E000D8B005D0000E2F6E010E2E6E04D064C05D
:1008F0002EF065C02FF062C030F063C031F01EC032
:1009000032F01FC033F020C034F021C035F022C0D7
:1009100036F023C037F024C038F025C039F0000E7F
:100920003B6E1F0E3A6E000E876F76D03A06D8A047
:100930003B06680E3A24D96E000E3B20DA6E32C0B8
:1009400001F033C002F034C003F035C004F036C00B
:1009500005F037C006F038C007F039C008F00A0EBD
:10096000096E000E0A6E000E0B6E000E0C6E000E6D
:100970000D6E000E0E6E000E0F6E000E106E46EC29
:1009800006F001C026F002C027F003C028F004C022
:1009900029F005C02AF006C02BF007C02CF008C0D3
:1009A0002DF02650300FDF6E2E06D8A02F06300611
:1009B000D8A0310632C001F033C002F034C003F0D9
:1009C00035C004F036C005F037C006F038C007F077
:1009D00039C008F00A0E096E000E0A6E000E0B6E8A
:1009E000000E0C6E000E0D6E000E0E6E000E0F6EE1
:1009F000000E106EDFEC05F001C032F002C033F0E3
:100A000003C034F004C035F005C036F006C037F03E
:100A100007C038F008C039F03A503B10D8B41AD0AB
:100A2000325033103410351036103710381039105A
:100A3000D8A47CD72FBE05D02F5002E12E04D8B009
:100A400075D731BE07D0315003E13004D8A002D0B1
:100A50005CB26CD71CC011F01DC012F0680E3A24B5
:100A6000136E000E3B20146E30C015F031C016F02E
:100A7000EDEC06F011C01CF012C01DF01200000ECB
:100A8000166E000E156E000E0F6E000E0E6E02D06A
:100A9000084A092A010E146E08C0F6FF09C0F7FFC4
:100AA0000800F550200AD8B418D0F70E0A6EFF0ED1
:100AB0000B6E08C0F6FF09C0F7FF0800F5500C6E7A
:100AC0000D6A0A500C260B500D220D5004E1050E44
:100AD0000C5CD8A002D0000E146E14C010F0116A85
:100AE00010501110D8B408D0D3D7000E0F6E010EDD
:100AF0000E6E084A092A2ED008C0F6FF09C0F7FF7B
:100B00000800F5500A6E0B6A0B50000AD8A422D0D8
:100B10000A502B0AD8B4EDD7060AD8B4E6D71AD0B3
:100B200015C001F016C002F0000E046E0A0E036E2E
:100B3000ABEC08F008C0F6FF09C0F7FF0800F5505D
:100B4000015E000E025A300E0124156E000E0220C6
:100B5000166ECFD7D00E0A6EFF0E0B6E08C0F6FFD2
:100B600009C0F7FF0800F5500C6E0D6A0A500C26FC
:100B70000B500D220D5006E10A0E0C5CD8B002D0CD
:100B8000010E01D0000E126E136A12501310D8A479
:100B9000C7D70E500F10D8A40DD015C00AF016C03C
:100BA0000BF00A1E0B1E0A4A0B2A0AC008F00BC0E3
:100BB00009F0120015C008F016C009F0120020EE6E
:100BC00011F0070EDE6AE806FDE209500A100B106C
:100BD0000C100D100E100F101010D8B446D0010ECE
:100BE000196E0AD0D89009360A360B360C360D36F7
:100BF0000E360F361036192A10AEF4D7D8901136AB
:100C0000123613361436153616361736183609507E
:100C1000015C0A5002580B5003580C5004580D50F8
:100C200005580E5006580F50075810500858D8A0B5
:100C300011D00950015E0A50025A0B50035A0C5051
:100C4000045A0D50055A0E50065A0F50075A1050AC
:100C5000085A1180D89010320F320E320D320C32F9
:100C60000B320A320932192EC9D711C001F012C055
:100C700002F013C003F014C004F015C005F016C054
:100C800006F017C007F018C008F0120009500A104B
:100C90000B100C100D100E100F101010D8B43CD00B
:100CA000010E116E0AD0D89009360A360B360C3672
:100CB0000D360E360F361036112A10AEF4D7095005
:100CC000015C0A5002580B5003580C5004580D5048
:100CD00005580E5006580F50075810500858D8A005
:100CE00010D00950015E0A50025A0B50035A0C50A2
:100CF000045A0D50055A0E50065A0F50075A1050FC
:100D0000085AD89010320F320E320D320C320B329C
:100D10000A320932112ED3D701C001F002C002F00D
:100D200003C003F004C004F005C005F006C006F0DF
:100D300007C007F008C008F0120003500410D8B430
:100D400004D003500410D8A404D001500EEC09F0D4
:100D5000120020EE04F00350D9260450DA22DE50AF
:100D6000DE10D8B416D020EE04F00350D92604507B
:100D7000DA2210EE02F00350E1260450E222DE50A7
:100D8000E65CE650800A096EDE50800A0958D8B049
:100D9000120020EE02F00350D9260450DA22DECFF2
:100DA00005F0DDCF06F003C0D9FF04C0DAFFDECFC7
:100DB00007F0DDCF08F005500724D96E0650082053
:100DC000DA6E01C0DFFF20EE02F00350D926045096
:100DD000DA22DE2A000EDD2212005CA00AD013C047
:100DE0000AF014C00BF011C00CF012C00DF062EC50
:100DF00008F016BE05D015C01AF016C01BF004D0BE
:100E0000000E1B6E000E1A6E000E196E000E186E8C
:100E10000CD0000E026E200E016E11C003F012C045
:100E200004F09DEC06F0184A192A1A50185C195063
:100E3000800A176E1B50800A1758D8A0EAD75CB0FA
:100E40000AD013C00AF014C00BF011C00CF012C08D
:100E50000DF062EC08F013C001F014C002F096EC43
:100E600008F01A500124116E1B500220126E12005D
:100E70000F0E8C168B988B9C0F0E95169498949C45
:100E80004E0E046EEB0EE82EFED7042EFCD700F0BB
:100E9000200E21EC08F01A0E046EF80EE82EFED794
:100EA000042EFCD700F000F0200E21EC08F0060E16
:100EB000046E300EE82EFED7042EFCD700F000F0B2
:100EC000200E21EC08F0060E046E300EE82EFED740
:100ED000042EFCD700F000F0280E21EC08F0010EE3
:100EE00021EC08F00C0E21EC08F0060E21EC08F0C5
:100EF000800E21EC08F01200720ED36E38EC07F071
:100F0000D0EC08F00AEC09F0880E0001986F000E92
:100F1000996F010E9A6F060E9B6F66C09CF067C0BA
:100F20009DF0D6EC07F0000E046E000EEFEC08F01A
:100F3000880E056E000E066EBEEC08F0030E5B6EAA
:100F4000080E5A6E770EE82EFED75A2EFCD75B2E6F
:100F5000FAD700F0D9D754C058F055C059F0000E58
:100F60000001616F000E606F13D052C03CF053C09F
:100F70003DF0580E3E6E000E3F6E56C040F057C01A
:100F800041F008EC03F03C50000160273D50612324
:100F900058C0F6FF59C0F7FF0800F5500009D8A463
:100FA000E4D760C052F061C053F012009C0E000103
:100FB000A06F000EA16F98C0A2F099C0A3F0000E20
:100FC000A56F000EA46F000EA76F000EA66FA20EF5
:100FD000526E000E536E9AC054F09BC055F0A00E96
:100FE000566E000E576EABEC07F00001A451982529
:100FF000D96EA5519921DA6E000EDF6E1200026ED5
:10100000000E956E8B8883500F0B036E0250F00B11
:1010100003108C6EFEEC08F000F000F000F000F021
:101020000238F00BF00B03108C6EFEEC08F00B0E88
:10103000016E620EE82EFED7012EFCD700F000F004
:101040001200026E000E956E8B9883500F0B036E8C
:101050000250F00B03108C6EFEEC08F000F000F074
:1010600000F000F00238F00BF00B03108C6EFEEC79
:1010700008F00B0E016E620EE82EFED7012EFCD793
:1010800000F000F01200010E076E200E0118021091
:10109000D8B414D0F70E036EFF0E046E01C005F035
:1010A00002C006F00350052604500622065004E153
:1010B000050E055CD8A002D0000E076E07C001F037
:1010C000026A1200000E106E000E0F6E0BD00EC0E2
:1010D00001F0026A0CC003F00DC004F09DEC06F0B4
:1010E0000F4A102A0F500A24D96E10500B20DA6EC6
:1010F000DF500E6E0E50D8B41200E9D7D00E036E3A
:10110000FF0E046E01C005F002C006F00350052674
:1011100004500622065006E10A0E055CD8B002D043
:10112000010E01D0000E016E026A120001C003F030
:1011300002C004F002D0014A022A01C0D9FF02C055
:10114000DAFFDF50D8A4F7D70350015C016E0450DA
:101150000258026E120001500302F3CF05F0F4CFE3
:1011600006F001500402F350062602500302F35029
:10117000062605C001F006C002F0120009D005C025
:10118000D9FF06C0DAFFDF5005EC09F0054A062A50
:1011900005C0D9FF06C0DAFFDF50D8B41200EFD780
:1011A00092807E80C08E000EC16EC084C092C080CE
:1011B000C08AC098C0969E9C9D8CF28CF28E1200C4
:1011C00000EE60F0380EEE6AE806FDE15D6A5C6AEA
:1011D0005E905E92000EF86E00017CEF07F0056EE7
:1011E0000550D8B406D00450400F800921EC08F017
:1011F00012000450800921EC08F012008B8C00F0E2
:1012000000F000F000F08B9C1200046E0450FFEC24
:0E12100007F01200010EC26EC2821200120020
:020000040020DA
:08000000FFFFFFFFFFFFFFFF00
:020000040030CA
:0E000000FF08191EFF8B81FF0FC00FE00F409D
:00000001FF
