:020000040000FA
:04000000B1EF06F066
:100600000048454C4C4F20574F524C442148454CD4
:100610004C4F20574F524C44210D0A005245414443
:0D06200020427974653A2025630D0A000020
:10062E00720ED36E000E7E6E000E7F6E3BEC07F0E8
:10063E0047EC07F0410E036E000EEAEC06F0000EDA
:10064E002BEC07F04A6E9E0E016E000E026E000E2F
:10065E00046E000E036E000E066E1E0E056E69EC25
:10066E0004F09E0E326E000E336E1C0E346E060EAD
:10067E00356E4AC036F0376A1BEC06F09E0E026EDF
:10068E00000E036E19EC07F0420E036E010EEAEC3B
:10069E0006F0010E2BEC07F04A6E9E0E016E000E58
:1006AE00026E000E046E000E036E000E066E1E0E1F
:1006BE00056E69EC04F09E0E326E000E336E1C0E4B
:1006CE00346E060E356E4AC036F0376A1BEC06F0F5
:1006DE009E0E026E000E036E19EC07F0010E056EF3
:1006EE00060E066E010E016E060E026E90EC06F000
:1006FE000150076E020E02EC05F0800E016E000E28
:10070E00026E000E046E000E036E000E066E1E0EBE
:10071E00056E69EC04F0800E056E000E066E010E7D
:10072E00016E060E026E90EC06F00150076E020E80
:10073E0004EC07F0800E026E000E036E19EC07F04B
:10074E0069EC06F0000E2BEC07F04A6E9E0E016E61
:10075E00000E026E000E046E000E036E000E066E8C
:10076E001E0E056E69EC04F09E0E326E000E336E98
:10077E001C0E346E060E356E4AC036F0376A1BEC10
:10078E0006F09E0E026E000E036E19EC07F0FFD7F8
:10079E0023C0D9FF24C0DAFFDECFF6FFDDCFF7FF8F
:1007AE000800F550250AD8A473D023C0D9FF24C061
:1007BE00DAFFDE2A000EDD22000E456E000E446EBC
:1007CE0044C048F045C049F04668476823C0D9FF89
:1007DE0024C0DAFFDECFF6FFDDCFF7FF0800F550BD
:1007EE00630AD8A426D023C0D9FF24C0DAFFDE2A9C
:1007FE00000EDD2225C0D9FF26C0DAFFDFCF27F09D
:10080E00020EDE26DFCF28F0000EDD2227C0D9FF34
:10081E0028C0DAFFDF50296E21C01CF022C01DF067
:10082E0029C01EF042EC06F01CC021F01DC022F0C3
:10083E00120023C0D9FF24C0DAFFDECFF6FFDDCFD2
:10084E00F7FF0800F550250AD8A416D023C0D9FF0B
:10085E0024C0DAFFDE2A000EDD22000E026E250E07
:10086E00016E21C003F022C004F057EC05F0000E1B
:10087E00226E010E216E120023C0D9FF24C0DAFFB2
:10088E00DE2A000EDD22000E226E000E216E1200F8
:10089E0023C0D9FF24C0DAFFDECFF6FFDDCFF7FF8E
:1008AE000800F550016E026A21C003F022C004F068
:1008BE0057EC05F023C0D9FF24C0DAFFDE2A000E64
:1008CE00DD22D5D701C00BF002C00CF0055006108A
:1008DE00D8B412000BC0D9FF0CC0DAFF03C0DFFF83
:1008EE0005500B24076E06500C20086EFF0E0724D1
:1008FE00D96EFF0E0820DA6E03C0DFFF065004E14A
:10090E00030E055CD8A0120020EE01F00B50D92684
:10091E000C50DA2203C0DFFF20EE02F00B50D92676
:10092E000C50DA2203C0DFFF05500B24076E065071
:10093E000C20086EFE0E0724D96EFF0E0820DA6E0C
:10094E0003C0DFFF05500B24076E06500C20086E07
:10095E00FD0E0724D96EFF0E0820DA6E03C0DFFFEE
:10096E00065004E1070E055CD8A0120020EE03F03D
:10097E000B50D9260C50DA2203C0DFFF05500B2492
:10098E00076E06500C20086EFC0E0724D96EFF0E63
:10099E000820DA6E03C0DFFF065004E1090E055C85
:1009AE00D8A012000BC007F00CC008F0071E081EDE
:1009BE00074A082A030E0714096E0A6A09500B2605
:1009CE000A500C220950055E0A50065AFC0E0516F6
:1009DE00FF0E06160BD00BC0D9FF0CC0DAFF03C0FA
:1009EE00DFFF0506D8A006060B4A0C2A0550061096
:1009FE00D8B41200F0D70A6E68EC07F052EC07F08C
:100A0E00020E70EC07F00A5070EC07F0000E0B6E41
:100A1E0037D00B500AC008F0096A0826000E0922CA
:100A2E000F0E0816000E091608500910D8A419D07A
:100A3E000B50D8B416D05DEC07F01A0E086EF80EF7
:100A4E00E82EFED7082EFCD700F000F068EC07F079
:100A5E0052EC07F0020E70EC07F00A500B2470EC0B
:100A6E0007F00B500524086E000E0620096E08C014
:100A7E00F6FF09C0F7FF0800F55070EC07F00B2ADF
:100A8E0007500B5CD8A0C5D75DEC07F01A0E086EA8
:100A9E00F80EE82EFED7082EFCD700F000F012005C
:100AAE0003500410D8B404D003500410D8A404D0BA
:100ABE00015084EC07F0120020EE04F00350D9260A
:100ACE000450DA22DE50DE10D8B416D020EE04F038
:100ADE000350D9260450DA2210EE02F00350E1261C
:100AEE000450E222DE50E65CE650800A096EDE50CB
:100AFE00800A0958D8B0120020EE02F00350D92611
:100B0E000450DA22DECF05F0DDCF06F003C0D9FFA8
:100B1E0004C0DAFFDECF07F0DDCF08F00550072462
:100B2E00D96E06500820DA6E01C0DFFF20EE02F00B
:100B3E000350D9260450DA22DE2A000EDD221200DE
:100B4E0048A00AD013C00AF014C00BF011C00CF06C
:100B5E0012C00DF0CEEC06F016BE05D015C01AF080
:100B6E0016C01BF004D0000E1B6E000E1A6E000E87
:100B7E00196E000E186E0CD0000E026E200E016E55
:100B8E0011C003F012C004F057EC05F0184A192AF0
:100B9E001A50185C1950800A176E1B50800A17588D
:100BAE00D8A0EAD748B00AD013C00AF014C00BF090
:100BBE0011C00CF012C00DF0CEEC06F013C001F017
:100BCE0014C002F090EC06F01A500124116E1B5066
:100BDE000220126E12002CC030F02DC031F0000E2B
:100BEE00436E000E426E12D02AC021F02BC022F0AE
:100BFE00300E236E000E246E2EC025F02FC026F070
:100C0E00CFEC03F0215042262250432230C0F6FF93
:100C1E0031C0F7FF0800F5500009D8A4E5D742C04F
:100C2E002AF043C02BF01200360E3A6E000E3B6EC9
:100C3E0032C03CF033C03DF0000E3F6E000E3E6EF3
:100C4E00000E416E000E406E3C0E2A6E000E2B6E94
:100C5E0034C02CF035C02DF03A0E2E6E000E2F6ED5
:100C6E00F2EC05F03E503224D96E3F503320DA6E4E
:100C7E00000EDF6E120044504510D8A405D044C0BB
:100C8E001FF045C020F006D0FF0E44241F6EFF0E4D
:100C9E004520206E1EC060F0000E0001616F1CC06A
:100CAE0011F01DC012F0600E136E000E146E1FC0F8
:100CBE0015F020C016F0A7EC05F011C01CF012C004
:100CCE001DF01200000E046E68EC07F01ED052EC00
:100CDE0007F0020E70EC07F0045070EC07F0000EF7
:100CEE00056E000E70EC07F0052A0F0E0564F9D79D
:100CFE005DEC07F01A0E036EF80EE82EFED7032EEB
:100D0E00FCD700F000F0100E04267F0E0464DFD72F
:100D1E00120001C003F002C004F002D0014A022A00
:100D2E0001C0F6FF02C0F7FFF86A050EF76403D0A4
:100D3E000800F55005D0F6CFE1FFF7CFE2FFE75000
:100D4E000009D8A4EBD70350015C016E0450025881
:100D5E00026E1200060EF66E0F0EF76E000EF86E95
:100D6E000900F5CF4BF00900F5CF4CF000EE60F026
:100D7E005C0EEE6AE806FDE100EE42F0090EEE6A48
:100D8E00E806FDE1000EF86E000117EF03F0000E0D
:100D9E00106E000E0F6E0BD00EC001F0026A0CC06A
:100DAE0003F00DC004F057EC05F00F4A102A0F5057
:100DBE000A24D96E10500B20DA6EDF500E6E0E50D4
:100DCE00D8B41200E9D7056E68EC07F052EC07F0C4
:100DDE00020E70EC07F0055070EC07F0035070EC4B
:100DEE0007F05DEC07F01A0E046EF80EE82EFED733
:100DFE00042EFCD700F000F01200086E000E096EF3
:100E0E000CD009500524D96E000E0620DA6E08505B
:100E1E0009242BEC07F0DF6E092A0750095CD8B0C5
:100E2E001200EFD709D002C0D9FF03C0DAFFDF509E
:100E3E0077EC07F0024A032A02C0D9FF03C0DAFF9B
:100E4E00DF50D8B41200EFD7036E52EC07F0030E4A
:100E5E0070EC07F0035070EC07F07DEC07F0046EB9
:100E6E005DEC07F00450120094948B849496948851
:100E7E00949AC79EC79CC698F00EC616C68A1200D4
:100E8E00948C948EAC98B896AC84080EAF6EAB8EE4
:100E9E00AC8AAB8812008B94060E016E300EE82ED3
:100EAE00FED7012EFCD700F000F012008B84060E48
:100EBE00016E300EE82EFED7012EFCD700F000F0AA
:100ECE00120052EC07F0060E70EC07F05DEC07F026
:100EDE001200026E02C0C9FFC7A0FED7C950120091
:100EEE00016EACA2FED701C0ADFF1200000EC96E9E
:0C0EFE00C7A0FED7C95012000106120068
:020000040020DA
:08000000FFFFFFFFFFFFFFFF00
:020000040030CA
:0E000000FF08191EFF8B81FF0FC00FE00F409D
:00000001FF
