:020000040000FA
:0400000000EF39F0E4
:1071DE00720ED36E000E7E6E000E7F6E93928A92AA
:1071EE00CD8ECD92CD50CF0B2009CD6E54EC3AF012
:1071FE00FFD70A0EF66E760EF76E000EF86E01EEE3
:10720E0000F010EEF6F00900F5CFEEFFE550E1507C
:10721E00FAE19D0EF66E720EF76E000EF86E00EE2F
:10722E0060F010EE7BF00900F5CFEEFFE550E15077
:10723E00FAE10001EFEF38F0000E096E000E0A6E53
:10724E00000E0B6E000E0C6E01A008D00550092624
:10725E0006500A2207500B2208500C22D8900536F1
:10726E00063607360836D89004320332023201321F
:10727E000150021003100410D8A4E6D709C001F083
:0E728E000AC002F00BC003F00CC004F01200A6
:10729D000808080808080404040808040808080871
:1072AD00080804040408080408080808020408086B
:1072BD00020808080804040804080202040404086B
:1072CD000808080408080808080808080304040446
:1072DD000804080404080804040408080808030442
:1072ED000808080808080404040808040808080821
:1072FD00080804040408080408080808020408081B
:10730D000208080808040408040802000E156E009F
:10731D000E166E000E176E000E186E115012101311
:10732D00101410D8B42AD0010E196E06D0D89011B1
:10733D0036123613361436192A14AEF8D7D89015DE
:10734D003616361736183611500D5C12500E58136E
:10735D00500F5814501058D8A009D011500D5E126E
:10736D00500E5A13500F5A1450105A1580D89014AD
:10737D0032133212321132192EE1D715C00DF0161B
:10738D00C00EF017C00FF018C010F01200000E065E
:10739D006E04AE06D0036C041ED8B0042A010E068E
:1073AD006E02AE06D0016C021ED8B0022A010E0686
:1073BD001A000E086E000E076E03500410D8B41C90
:1073CD00D0010E056E04D0D89003360436052A047C
:1073DD00AEFAD7D890073608360350015C04500238
:1073ED0058D8A005D00350015E0450025A0780D82A
:1073FD009004320332052EEDD70650D8B404D007D1
:10740D006C081ED8B0082A07C001F008C002F0129F
:10741D0000000E0114096E000E02140A6E800E0398
:10742D00140B6E7F0E04140C6E09500A100B100C09
:10743D0010D8A408D0000E016E000E026E000E03CF
:10744D006E000E046E000E0514096E000E06140A71
:10745D006E800E07140B6E7F0E08140C6E09500A09
:10746D00100B100C10D8A408D0000E056E000E06DF
:10747D006E000E076E000E086E055001180AE1062B
:10748D0050021807E10750031804E108500418D8FA
:10749D00B402D0D8901200D8801200000E0001E482
:1074AD006F000EE36F070E026ED00E016E600EE3DD
:1074BD0025D96E000EE421DA6EDF50DB6FDB510350
:1074CD006E046ACDEC39F001C0E1F002C0E2F0D8F3
:1074DD00900001E335D96EE435DA6E000ED9260140
:1074ED000EDA22DECFDBF0DDCFDCF0DBC001F0DC2D
:1074FD00C002F0036A046A000E80EC3BF001C0DDAF
:10750D00F002C0DEF003C0DFF004C0E0F0DDC04BE0
:10751D00F0DEC04CF0DFC04DF0E0C04EF0320E4F4B
:10752D006EE1C050F0E2C051F020EC3CF00001E300
:10753D004BE42BE45105E17B0EE35DD8B01200B2B4
:10754D00D71200433444344A6E4A50D8A409D000AF
:10755D000E416E000E426E000E436E000E446E1212
:10756D000041C045F042C046F043C047F044C0481A
:10757D00F0200E05D0D8904832473246324532E8D9
:10758D002EF9D74550496E438EFF0E4116FF0E4220
:10759D0016FF0E4316000E4416960E4A5E4AAE0DA9
:1075AD00D04A50800A970FD8A0D2D7D890443243F2
:1075BD0032423241324A3EF9D70DD01F0E4A64078E
:1075CD00D0C6D7D89041364236433644364A064A5D
:1075DD0050D8A4F7D74950D8B408D0441E431E4202
:1075ED001E416C000E42224322442241C041F04212
:1075FD00C042F043C043F044C044F012000B024BB4
:10760D000293029302BA02930200000F0393024BFE
:10761D0002930200000B024B0293029302BA0293F3
:10762D000200000F0393024B02930200004B024B2A
:10763D000293024B024B024B0293024B024B020F81
:10764D00030F03BA02BA0293024B0293020B020B11
:10765D00020B020F030F030F037003700370030F70
:10766D0003BA02000093029302930293029302BAAB
:10767D00020B024B024B0200000F030F030F030F0F
:10768D00030F03700370030F03BA020000930293FC
:10769D00029302BA0293024B024B0200000B024B03
:1076AD000293029302BA02930200000F0393024B5E
:1076BD0002930200000B024B0293029302BA029353
:1076CD000200000F0393024B02930200004B024B8A
:1076DD000293024B024B024B0293024B024B020FE1
:1076ED00030F03BA02BA0293024B0293020B020B71
:1076FD00020B02096E0950D8A404AE1AD001C005C0
:10770D00F002C006F003C007F004C008F0051E0625
:10771D001E071E081E052A000E0622072208220536
:10772D00C00BF006C00CF007C00DF008C00EF0083D
:10773D00D001C00BF002C00CF003C00DF004C00E60
:10774D00F00150021003100410D8A409D0000E014E
:10775D006E000E026E000E036E000E046E12009689
:10776D000E0A6E06D00A2AD8900E320D320C320B4C
:10777D0032000E0B14056E000E0C14066E000E0D6D
:10778D0014076EFE0E0E14086E0550061007100835
:10779D0010D8B40DD0E7D70A2A010E0B26000E0C17
:1077AD00220D220E22D8900E320D320C320B3200E9
:1077BD000E0B14056E000E0C14066E000E0D140744
:1077CD006EFF0E0E14086E0550061007100810D827
:1077DD00B407D0E1D70A06D8900B360C360D360E0D
:1077ED00360DBE03D0020E0A60F5D70AA00D9ED845
:1077FD00900A320AC005F0066A076A086A05C008D1
:10780D00F0076A066A056A05500B1206500C12073E
:10781D00500D1208500E120950D8A404AE01D00E0E
:10782D008E0BC001F00CC002F00DC003F00EC004B1
:10783D00F012004BC001F04CC002F04DC003F04EF1
:10784D00C004F0000E056E000E066E000E076E00F1
:10785D000E086E0FEC3AF0D8B0C0D0000E2C6E248E
:10786D000E2D6E740E2E6E490E2F6E4BC013F04CF6
:10787D00C014F04DC015F04EC016F0000E0F6E0086
:10788D000E106E800E116E3F0E126E13EC3DF00F4A
:10789D00C028F010C029F011C02AF012C02BF057EB
:1078AD00EC3EF028C041F029C042F02AC043F02B35
:1078BD00C044F0A8EC3AF041C05BF042C05CF05B14
:1078CD00C001F05CC002F0036A046A4F50056E06F9
:1078DD006A076A086A23EC39F001C00DF002C00E88
:1078ED00F003C00FF004C010F0640E116E000E1204
:1078FD006E000E136E000E146E8CEC39F00DC05D23
:10790D00F00EC05EF05D505B5C536E5E505C585483
:10791D006E000E136E000E146E7A0E156E440E165A
:10792D006E4BC02CF04CC02DF04DC02EF04EC02F24
:10793D00F050C001F051C002F0036A046A000E80DD
:10794D00EC3BF001C028F002C029F003C02AF0047E
:10795D00C02BF057EC3EF028C00FF029C010F02AD4
:10796D00C011F02BC012F013EC3DF00FC041F01020
:10797D00C042F011C043F012C044F0A8EC3AF041FF
:10798D00C055F042C056F0000E586E000E576E1ADC
:10799D00D08A82000ECF6E000ECE6ECD805D50CEA1
:1079AD005C5E50CF58D8A0FAD78A92000ECF6E00E9
:1079BD000ECE6E5350CE5C5450CF58D8A0FAD7CDC2
:1079CD0090574A582A5550575C5850800A526E5657
:1079DD0050800A5258D8B01200DBD78A92000ECFD1
:1079ED006E000ECE6ECD80000E5A6E000E596E0CCE
:1079FD00D0E80ECE5C030ECF58D8A0FAD7000ECF2C
:107A0D006E000ECE6E594A5A2A5050595C51505A3A
:107A1D0058D8A0EED7CD9012001250800B1F6E12C9
:107A2D00501224266E11BE26802650D8B40DD026B5
:107A3D0028D8A408D0000E0F6E000E106E000E1187
:107A4D006E000E126E118E06D0000E0F6E000E100F
:107A5D006E000E116E000E126E1650800B1F1A1650
:107A6D00501624276E15BE27802750D8B40DD02769
:107A7D0028D8A408D0000E136E000E146E000E153B
:107A8D006E000E166E158E06D0000E136E000E14BF
:107A9D006E000E156E000E166E1350141015101686
:107AAD0010D8A417D0000E0F6E000E106E000E1120
:107ABD006E000E126E800E11127F0E12121F5012DA
:107ACD00120FC00FF010C010F011C011F012C01243
:107ADD00F012002650D8A409D0000E0F6E000E1023
:107AED006E000E116E000E126E1200275026C0177A
:107AFD00F0186A175E000E185A7F0E1724206E00BC
:107B0D000E1820216E0FC01BF010C01CF011C01DEF
:107B1D00F012C01EF0000E0F6E000E106E000E1152
:107B2D006E000E126E000E226E000E236E000E24DD
:107B3D006E000E256E000E276E28D02750D8B4117A
:107B4D00D0D8901B361C361D361E36D8900F3610E9
:107B5D00361136123625BE0F80D8902236233624A4
:107B6D0036253613501B5C14501C5815501D5816D5
:107B7D00501E58D8A009D0258C13501B5E14501CD4
:107B8D005A15501D5A16501E5A272A190E2764D5FC
:107B9D00D71B501C101D101E10D8B411D022800FF1
:107BAD00D0D8900F3610361136123625BE0F80D82C
:107BBD009022362336243625362006D8A0210611EC
:107BCD00AEEFD7000E276E25AE17D0FF0E2214177D
:107BDD006EFF0E2314186EFF0E2414196E7F0E25E2
:107BED00141A6E1750181019101A10D8B403D001AA
:107BFD000E276E02D00FB0FBD72750D8B41FD0017F
:107C0D000E0F26000E10221122122212A017D00FD5
:107C1D00C017F010C018F011C019F012C01AF01AE8
:107C2D00341A3219321832173217C00FF018C0102B
:107C3D00F019C011F01AC012F0204A212A21BE10ED
:107C4D00D0215003E12028D8A00BD0000E216E20AA
:107C5D0068000E0F6E000E106E000E116E000E12EB
:107C6D006E21BE05D0215011E12004D8B00ED000F8
:107C7D000E216E000E206E000E0F6E000E106E00A7
:107C8D000E116E000E126E000E1F6E20C026F02615
:107C9D00A002D0118E01D0119ED8902630126E0EFA
:107CAD00D72B50800B346E2B502B243A6E2ABE3AB4
:107CBD00803A50D8B40DD03A28D8A408D0000E2858
:107CCD006E000E296E000E2A6E000E2B6E2A8E0887
:107CDD00D0000E286E000E296E000E2A6E000E2B9F
:107CED006E2F50800B341A2F502F24396E2EBE3923
:107CFD00803950D8B40DD03928D8A408D0000E2C16
:107D0D006E000E2D6E000E2E6E000E2F6E2E8E0836
:107D1D00D0000E2C6E000E2D6E000E2E6E000E2F4E
:107D2D006E3950D8B403D03A50D8A409D0000E28DB
:107D3D006E000E296E000E2A6E000E2B6E12002E96
:107D4D00502802F3CF3FF0F4CF40F03F50356E3660
:107D5D006A376A386A40503B6E3C6A3D6A3E6A2D0E
:107D6D00502902F3CF3FF0F4CF40F03F50352600BD
:107D7D000E36223722382240503B26000E3C223D43
:107D8D00223E222C502A02F3CF3FF0F4CF40F03F99
:107D9D00503526000E36223722382240503B260021
:107DAD000E3C223D223E2237C038F036C037F0352A
:107DBD00C036F0356A2C502902F3CF3FF0F4CF4096
:107DCD00F03F50352640503622000E3722000E3837
:107DDD00222D502802F3CF3FF0F4CF40F03F503525
:107DED002640503622000E3722000E382237C0387A
:107DFD00F036C037F035C036F0356A2C502802F316
:107E0D00CF3FF0F4CF40F03F5035264050362200A2
:107E1D000E3722000E38222E502902F3CF3FF0F4F8
:107E2D00CF40F03F503B2640503C22000E3D2200FB
:107E3D000E3E222D502A02F3CF3FF0F4CF40F03FFB
:107E4D00503B2640503C22000E3D22000E3E222E7D
:107E5D00502A02F3CF3FF0F4CF40F03F50306E4048
:107E6D0050316E326A336A32C033F031C032F03085
:107E7D00C031F0306A30503B2631503C2232503DFB
:107E8D002233503E2235C030F036C031F037C0328B
:107E9D00F038C033F0190E05D0D89033323232316C
:107EAD00323032E82EF9D730503B2631503C223259
:107EBD00503D2233503E2237C038F036C037F035B2
:107ECD00C036F0356A39503AC030F0316A3026008C
:107EDD000E3122820E30243F6EFF0E3120406E0F88
:107EED00D0D8903B363C363D363E3638BE3B80D8FA
:107EFD009035363636373638363F06D8A040063DF3
:107F0D00AEEFD7000E396E38AE17D0FF0E351430E8
:107F1D006EFF0E3614316EFF0E3714326E7F0E3833
:107F2D0014336E3050311032103310D8B403D001E9
:107F3D000E396E02D03BB0FBD73950D8B41FD001EB
:107F4D000E3B26000E3C223D223E223EA017D03B8A
:107F5D00C030F03CC031F03DC032F03EC033F033A4
:107F6D0034333232323132303230C03BF031C03CFA
:107F7D00F032C03DF033C03EF03F4A402A40BE0DC6
:107F8D00D0405003E13F28D8A008D0000E3B6E0032
:107F9D000E3C6E800E3D6E7F0E20D040BE05D04053
:107FAD00500EE13F04D8B00BD0000E3B6E000E3CDE
:107FBD006E000E3D6E000E3E6E000E346E0FD03F05
:107FCD00C03AF0FF0E3B16FF0E3C167F0E3D16001D
:107FDD000E3E163AB03D8ED8903A303E6E34503E3D
:107FED00123BC028F03CC029F03DC02AF03EC02B0A
:037FFD00F012007F
:020000040020DA
:08000000FFFFFFFFFFFFFFFF00
:020000040030CA
:0E000000FF08191EFF8B81FF0FC00FE00F409D
:00000001FF
