:020000040000FA
:040000002CEF00F0F1
:100008000182A1A023D0A00EBB180CE10F0EBC18D2
:10001800D8A408D0BA50F00B0809BA6E170EBC6EF7
:10002800700E0ED0700EBB180CE1170EBC18D8A4B9
:1000380008D0BA50F00B0909BA6E0F0EBC6EA00EAC
:10004800BB6E000ECF6E000ECE6EA1900192110015
:100058004FEF00F09492BA50F00B0909BA6ECD92A6
:10006800CD50CF0B2009CD6EA190A080F28CF28EDE
:10007800000ECF6E000ECE6E0F0EBC6EA00EBB6EC5
:10008800CD801200720ED36E000E7E6E000E7F6E53
:100098002EEC00F0FFD701900192000146EF00F02E
:020000040020DA
:08000000FFFFFFFFFFFFFFFF00
:020000040030CA
:0E000000FF08191EFF8B81FF0FC00FE00F409D
:00000001FF
